:1000000000000420053800002D3800002F380000C3
:10001000313800003338000035380000000000009F
:100020000000000000000000000000003738000061
:1000300039380000000000003B3800003D38000067
:100040007D550000694D000051B000003F380000B0
:100050003F3800003F380000895200003F38000060
:10006000158700003F3800003F3800008956000027
:100070003F3800008D5500003F3800003F38000039
:10008000395700003F3800003F3800003F3800007B
:100090003F3800003F3800003F3800003F38000084
:1000A0003F3800003F3800003F3800003F38000074
:1000B0003F3800003F380000000000000000000052
:1000C0003F3800003F3800003F3800003F38000054
:1000D0003F3800003F3800003F3800003F38000044
:1000E0003F3800003F3800003F38000000000000AB
:1000F000000000003F380000000000003F38000012
:1001000000000000000000000000000000000000EF
:1001100000000000000000000000000000000000DF
:1001200000000000000000000000000000000000CF
:1001300000000000000000000000000000000000BF
:1001400000000000000000000000000000000000AF
:10015000000000000000000000000000000000009F
:10016000000000000000000000000000000000008F
:10017000000000000000000000000000000000007F
:10018000000000000000000000000000000000006F
:10019000000000000000000000000000000000005F
:1001A000000000000000000000000000000000004F
:1001B000000000000000000000000000000000003F
:1001C000000000000000000000000000000000002F
:1001D000000000000000000000000000000000001F
:1001E000000000000000000000000000000000000F
:1001F00000000000000000000000000000000000FF
:1002000090F800F06DE9024520F007016FF0000C56
:1002100010F0070491F820F040F049804FF00004FE
:100220006FF00700D1E9002391F840F000F10800D9
:1002300082FA4CF2A4FA8CF283FA4CF3A2FA8CF311
:100240004BBBD1E9022382FA4CF200F10800A4FA78
:100250008CF283FA4CF3A2FA8CF3E3B9D1E90423CC
:1002600082FA4CF200F10800A4FA8CF283FA4CF303
:10027000A2FA8CF37BB9D1E9062301F1200182FABD
:100280004CF200F10800A4FA8CF283FA4CF3A2FAC3
:100290008CF3002BC6D0002A04BF04301A4612BAD1
:1002A000B2FA82F2FDE8024500EBD2007047D1E9D4
:1002B000002304F00305C4F100004FEAC50514F063
:1002C000040F91F840F00CFA05F562EA05021CBF34
:1002D00063EA050362464FF00004A9E7000000004E
:1002E00001F0FF01102A2BDB10F0070F08D010F8E7
:1002F000013B013A8B422DD010F0070F42B3F6D1EB
:10030000F0B441EA012141EA014122F007047FF003
:1003100000070023F0E80256083C85EA010586EA5A
:10032000010685FA47F5A3FA87F586FA47F6A5FA96
:1003300087F68EB9EED1F0BC01F0FF0102F00702A2
:1003400032B110F8013B013A83EA010313B1F8D14D
:100350000020704701387047002D06BF354603382E
:10036000073815F0010F07D1013015F4807F02BF67
:10037000013015F4C03F0130F0BC0138704700BFB8
:1003800038B5124B1D68AA6B04461AB10023C2E9A6
:10039000044338BD18200DF073F80246A86378B105
:1003A00001200021C2E90401094B0A480A49916071
:1003B000C2E900030B2393810023C2E9044338BD43
:1003C000064B074842210DF013F800BF84030020BC
:1003D00034126DE60E33CDABECDE050008F70000FD
:1003E00020F700001C4B10B51C68A26B8AB1136982
:1003F0001A4954691A4803FB01F100FB0411A3FBDD
:100400000030013341EB0001C2E9043121F000402A
:1004100010BD18200DF034F80246A06388B1114CCD
:10042000114B0E48114991609FED097BC2E90043D1
:100430000B2393810E4B014682ED047BC2E904310C
:1004400010BD0C4B0C484E210CF0D2FFAFF30080D6
:100450000100000000000000840300202DF451582A
:100460002D7F954C0E33CDAB34126DE6ECDE0500DE
:100470002E7F954C08F7000020F700000348044B3E
:10048000834202D0034B03B118477047F4030020A6
:10049000F403002000000000054806490B1AD90F9C
:1004A00001EBA301491002D0034B03B11847704779
:1004B000F4030020F40300200000000010B5064CF7
:1004C000237843B9FFF7DAFF044B13B10448AFF3C5
:1004D00000800123237010BD4008002000000000B0
:1004E00008F8000008B5044B1BB104490448AFF3F9
:1004F0000080BDE80840CFE700000000440800206D
:1005000008F80000A3F5803A704700BF154B002B98
:1005100008BF114B9D46FFF7F5FF00218B460F46A4
:100520001148124A121A0CF017FE0C4B002B00D087
:1005300098470B4B002B00D0984700200021040067
:100540000D000B480CF06CFC0CF09AFC200029000C
:1005500002F0A6F80CF06AFC0000080000000000A1
:100560000000000000000420F8030020D42F002029
:1005700055CE000000B585B00346002101AA44F223
:100580000100CDE90111039300F004F805B05DF816
:1005900004FB00BF72B6094BD3F8F030DB0700D57F
:1005A00000BEBFF34F8F0549054BCA6802F4E062F5
:1005B0001343CB60BFF34F8F00BFFDE700ED00E0BA
:1005C0000400FA0572B6024A1368013313607047DB
:1005D0005C080020034A1368013B136003B962B64C
:1005E000704700BF5C08002010B50446006830B1B9
:1005F000002105F0A7FB54F8040F0028F8D110BD26
:100600002DE9F043038883B0044643B1B3F5867FF8
:100610000CD1822910D0012003B0BDE8F0834FF443
:1006200086730120238003B0BDE8F083002303809C
:10063000032003B0BDE8F08303F096F9BFF35F8FAA
:1006400019491A4B0E6800220A601F781A70FFB20F
:10065000BFF35F8F164D03F08BF928680028DED0BA
:10066000DFF85090DFF8508003E055F8040F0028C1
:10067000D5D090F84A3026FA03F3DA07F5D590F88A
:10068000493047FA03F3DB07EFD502F083FC00287B
:10069000EBD02B68D9F80020009218464246022180
:1006A00002F016FCE1E700BF70080020B32F002025
:1006B00040010020381400203507000010B50D4A15
:1006C00090F84B3082B004460133106884F84B3008
:1006D000094A0090234604F12000802102F0F8FB33
:1006E000064B19782246002002B0BDE8104005F004
:1006F000D7BB00BF38140020BD060000B02F00207B
:1007000010B4094A094C1368194311602178012279
:1007100002FA00F040EA0103DBB2237004485DF8FE
:10072000044B05F0EFBB00BF70080020B32F002082
:100730005401002070B582B0044602F02BFC08B9C9
:1007400002B070BD04F12006304602F023FC94F89C
:100750004A10054694F8490003F0C8F848B994F8DF
:10076000483063B9002DEBD1304602F0F9FB0F4B56
:1007700014E00128F6D194F84830002BF2D1002D76
:10078000DED00B4B0B4A1B68002584F84B503046DB
:1007900000937E21234602F09BFB074B19782246EB
:1007A000284602B0BDE8704005F07ABBB22F0020A9
:1007B00038140020BD060000B12F0020F8B505F068
:1007C000B7FA304B304C187005F0B2FA2F4B304F5F
:1007D000187005F0ADFA2F4A2F4B107022687B601D
:1007E0000025FF213972FD60002A42D02B4E09E01E
:1007F00091F84A00F9683A72834054F8042F0B4389
:10080000FB60B2B392F84A3092F84910526C03F090
:100810001F0343EA41131F2BC6BF03F01F033146DA
:100820004FF0A04103F5E07342F08C0241F82350F1
:10083000236893F84A1093F8490003F013F82268EC
:1008400092F84A3092F8490003F01F0343EA40103F
:10085000012104F06FFC2168387A91F84920824226
:100860004FF00103C4D0FF28C2D054F8042F002A4F
:10087000C8D10B48002105F065FABDE8F8400448EE
:1008800003F048B8B12F002040010020B22F002013
:1008900060080020B02F0020010700000003005076
:1008A00054010020042800D0704708B5054A136899
:1008B0000133136002F06CFC00B908BDBDE80840CC
:1008C00002F04CBC7408002000B5134B83B000222A
:1008D0001A6004F0A7FAC0B9002004F0BFFA0F4B69
:1008E0000F4A93E803000090ADF804100D486946E4
:1008F00004F060FE60B901210A4804F0AFFE094827
:1009000004F0A0FE03B05DF804FBFFF733FEE3E75D
:10091000FFF730FEEFE700BF740800204CF0000046
:10092000A508000054F00000014B1868704700BF94
:1009300074080020014B1868C00970477408002033
:100940000346806A596005F0DDBA00BFF0B5858CBA
:1009500083B0044617461E464DB36A2D22D1822924
:100960004AD14568002D62D00023009304F118029B
:1009700004F11401284601F047FE227E131E18BF21
:10098000012384F82030D4E90431994246D0637EB3
:100990000133DBB26376002A3AD0032B0ED904234D
:1009A00084F820300023A384032003B0F0BD244B3F
:1009B0004560C0E904551B688362058301F0ECF9CA
:1009C0003946308100F090FF2060F0B11D4BC363C9
:1009D00023681C64216991B921683046463101F0D1
:1009E000F1F92368A3F84400206800F097FF6A2318
:1009F0000120A38403B0F0BD012003B0F0BD40236B
:100A00000022304601F01CFEE6E7A0840220CCE77D
:100A1000032BC4D8022384F82030C3E7089B606806
:100A200098472369227E01332361637EB3E7032362
:100A300080F820302846089B9847A5840220B4E718
:100A4000381400204109000010B5846882B01CB140
:100A500094F90830002B01DB02B010BD236A002B93
:100A6000FAD01A68002AF7D00749097831B11B6A11
:100A700023B101909847236A01981A68002302B0B5
:100A8000BDE8104000F0D6BEB42F00202DE9F0479D
:100A90009846124B82B01C68DDF828A084B1064647
:100AA0000F469146656843464A463946304625B169
:100AB000CDF800A0A847054638B92468002CF1D12C
:100AC0000025284602B0BDE8F087B379012BF8D1A4
:100AD0003A463146002000F08DFCF2E7780800200D
:100AE0002DE9F04F2DED028BA74CA84E05468BB09B
:100AF00020460F4601F00CFBC4F8A05003463070AE
:100B000008BBA279013A032A5AD9636823F07F43CC
:100B100023F0FF03002B50D06379032B00F02E81CC
:100B2000208900F08BFF48B1D0E90F8900F070FFF9
:100B3000B8F1000F02D094494846C0476379012BB1
:100B40006FD933784BB34FF00008C22B2BD0DFF8AE
:100B50005892404600F05CFF3278C32A6ED0BF2A1C
:100B600084BFA022327002212389874801F01CF93A
:100B7000D9F8001003910846FFF742FB039902469B
:100B8000814801F083FD39467F4801F01BF9394661
:100B900082B2284601F008F8337818460BB0BDEC55
:100BA000028BBDE8F08F404600F032FF33781846E4
:100BB0000BB0BDEC028BBDE8F08FC3233370AFE701
:100BC00003902946208900F08FFE8046002850D0EF
:100BD000039B0893CDE9063363794022ADF81620D4
:100BE000002B3DD123896A484522022101F0DCF81F
:100BF000A27A002A40F0BD8007AB009362480DF155
:100C00001603002206A901F0FFFCF8B9089B002B8F
:100C100037DADFF894915F4BC9F8003082233370E4
:100C200097E7E37CC3F380185B060BD5564928464B
:100C300000F0A4FA3378002BAFD084E700223270A2
:100C4000032191E73378002BA7D07EE7BDF816305B
:100C5000402B28BF4023ADF81630079B0893D6E7FA
:100C600001F09AF8452203460121494801F09CF819
:100C7000BEE7DFF83491484BC9F80030A323337046
:100C800067E708A9BDF81630009108F184024049D1
:100C90003D4808EE903A08EE102AFFF7F7FE0028CC
:100CA0004ED1099009A9384801F07EFC3B4BD3F89E
:100CB00000908246B9F1000F7AD0099B03979B46BA
:100CC0002B464D4699460AE006DD2A7AD30603D51F
:100CD0001BF800202F2A08D02D68002D66D06F68E1
:100CE0003846FFF78DFA8245EED10246594638461E
:100CF0000CF084FA0028EFD1A279039F4B46511ED5
:100D0000A946012A1D464FF0010303FA01F300F042
:100D1000C180990740F1A980D9F814A0BAF1000F59
:100D200000F0A38008AB1848009318EE102A18EEC4
:100D3000903A1749D04799F80830580600F1C0801A
:100D40003378002B7FF401AFA37D190758D5DFF866
:100D5000409099F90630002B52DB99F816301A07AB
:100D60004ED4DFF844900E4BC9F80030A123337005
:100D7000EFE60C49064801F003FC3DE721892846CF
:100D800000F00AFBCCE600BF80080020B62F002050
:100D90002C0900205CF000007CF000007C080020A2
:100DA0006CF000008B080020E0010020039F4D46FE
:100DB0005948842101F0DEFB5748842101F0DAFB19
:100DC0003378002B7FF4C1AE534808F1460100F0A0
:100DD000F9FF80B2A8F8440020B9C123DFF844919C
:100DE0003370B6E63378002B7FF4AFAE404600F0A8
:100DF00095FD337818460BB0BDEC028BBDE8F08F43
:100E0000637DD91116D1089A002ADDD0DFF8089148
:100E1000013218BF01224023484601F011FCB9F805
:100E2000A420D9F8A810402A28BF4022484601F043
:100E30002DFCC5E7DDE90723934232D00133069943
:100E400044D0BDF81630DFF8D0900122324801F0CE
:100E5000F7FBBDF81620B9F8A4309342B0D9D9F801
:100E6000A8102D4801F012FCAAE75A0705D5D9F8B9
:100E700018A0BAF1000F7FF455AF1B0705D5D9F8BC
:100E80001CA0BAF1000F7FF44DAF8521224801F07C
:100E900071FB91E7D9F810A0BAF1000F7FF442AFCF
:100EA00037E7DFF87490B9F8A420934219D382236E
:100EB0001A4989F8063048460F2201F0E7FB7FE720
:100EC000154A1749484600F095FA39E7DFF8489087
:100ED000BDF81630B9F8A4209A4294BF002201222E
:100EE000B4E7D21ABDF8163006999A4294BF002290
:100EF0000122484601F0A4FB0799B9F8A430BDF8D7
:100F000016205B1A9A4228BF1A46D9F8A8304846DC
:100F1000194401F0BBFB53E72C0900205CF00000F2
:100F200080080020E001002010B504460D486160F3
:100F3000214602F0A9FE94F90830002B00DB10BD19
:100F4000206A0028FBD0036A002BF8D00268002A30
:100F5000F5D0054BC0E903340023BDE8104008304C
:100F600000F068BC7C080020490A000038B50A4A35
:100F7000137803B138BD094D094C0A492B60012093
:100F8000107009482360FFF7CFFF00F007FEBDE8AF
:100F9000384000F0F9BE00BFB42F002078080020D0
:100FA0007C0800208CF0000090010020014B1868A4
:100FB000704700BF7C08002000B10068704700BF88
:100FC000F0B50388812B85B004460D465ED02BD842
:100FD000002B71D0712B6AD14D4BDE68002E32D0C0
:100FE0004C4B1B788B427FD100234B4F4B484C4ED0
:100FF0000122194600F0D8FE3B68484856F82310F5
:1010000001F0DCFA3B68474856F8231004F0D0FDA5
:10101000454800F06FFD0A2004F082FF434A00219A
:1010200098239184238001E0982B40D1404900917E
:101030003A4B3D4A3D482946FFF788FC012858D8DD
:10104000002005B0F0BD3B4804F06CFF022233489D
:101050003346314600F0A8FE314B3048596801F064
:10106000ADFA354A92E8030002AB83E80300072299
:1010700019462A4801F00AFB2B4800F03BFD0A20E4
:1010800004F04EFF2D4A8123968423802849009145
:10109000224B254A29482946FFF758FC0128CFD979
:1010A000274804F03FFF1A4802F068F81CE00023CC
:1010B0000320238005B0F0BD1B4A224D9560FD251D
:1010C000C2E90053204BD360114843F216334FF46A
:1010D000A061138202F048F80F4A114B12681B48B6
:1010E00053F8221004F064FD71230120238005B021
:1010F000F0BD134804F016FF07490B6801335A424C
:1011000002F0030203F0030358BF53420B60EBE706
:10111000300A0020B22F0020000B0020400A0020DF
:1011200074010020E0F00000EC0A0020D809002043
:1011300051110000C0F00000F4F00000040A00208B
:10114000D4F000000302030405060708A0F0000025
:1011500060B100B583B001A901F08CFA019A014693
:10116000044804F025FD03B05DF804FB024804F0D8
:10117000D9BE00BF10F10000FCF000002DE9F041E5
:101180008D7A82B015B902B0BDE8F081314B1C6890
:101190000E468046002C45D001F10B0702E0246882
:1011A000002C3FD0237F9D42F9D104F11D002A4637
:1011B00039460BF089FE0028F1D17279E2B1E36A79
:1011C000002BE0D0B279413A3E2A29D8F27C52066F
:1011D0000BD501A9304601F005FA019A236B934221
:1011E000D1D02263E36A012200E002223146204688
:1011F000984702B0BDE8F08133891748022100F01A
:10120000D3FD00F0C5FC0146134800F0DBFD0546A8
:1012100000F0BEFCAAB20146404600F0C5FCCEE795
:101220000322E3E733890C480022032100F0BCFDD0
:1012300000F0AEFC0146084800F0C4FD044600F092
:10124000A7FCA2B20146404602B0BDE8F04100F062
:10125000ABBC00BF040B0020080B00202DE9F041BF
:10126000114F3C68E4B1DFF844800546002601E0F8
:10127000246894B1294604F1180000F073FC00289A
:10128000F6D02146404602F087FE2146384602F05D
:1012900047FD24680136002CECD13046BDE8F081D2
:1012A00026463046BDE8F081B40B002084010020C2
:1012B0002DE9F047DFF86890D9F8004064B3DFF813
:1012C00064A005460F4616464FF0000801E024686A
:1012D000FCB1294604F1180000F044FC0028F6D0C7
:1012E00094F82C30B342F2D13246394604F12D0045
:1012F0000BF0EAFD0028EAD12146504602F04CFEF0
:101300002146484602F00CFD246808F10108002C33
:10131000DFD14046BDE8F087A0464046BDE8F087F3
:10132000B40B0020840100202DE9F047DFF8609025
:10133000D9F8004044B3DFF85CA006460F464FF0F2
:101340000008251D314604F1180016B100F00AFC12
:10135000A0B1BD42284607D0FEF752FF39460246EB
:1013600028460BF0B1FD48B92146504602F014FE64
:101370002146484602F0D4FC08F101082468002CFC
:10138000DFD14046BDE8F087A0464046BDE8F08783
:10139000B40B0020840100202DE9F843DFF84C80D5
:1013A000D8F80040ECB1DFF8489005460E4600271B
:1013B000294604F1180000F0D5FB10B1E38EB342CA
:1013C00005D02468002CF3D13846BDE8F8832146C7
:1013D000484602F0E1FD21464046013702F0A0FCFC
:1013E000EFE727463846BDE8F88300BFB40B00207E
:1013F000840100208B79012B00D070472DE9F04744
:1014000092F90630002B82B015464EDBCB7C5B0692
:101410000C464AD5D1F8A070002F46D04B6E4BB188
:10142000012B42D18A7A38460B3102B0BDE8F04731
:10143000FFF73EBF096E0191384694F80AA0D4F830
:101440005C80FFF771FF1F4802F08AFD064678B303
:10145000B8F1120FC146C4BF4FF01308C14642464F
:1014600001990430B1440BF061FD3946002706F1C3
:10147000180089F8047000F061FB524604F10B017A
:1014800086F82CA006F12D000BF050FD0E48F786D3
:10149000314602F0F9FBB16B4B1CB363284601F0F7
:1014A000ABF8B36B23F07F43B36302B0BDE8F087C2
:1014B0000649A32310222846AB7102B0BDE8F047CD
:1014C00001F0E4B884010020B40B002068F10000B2
:1014D0002DE9F04F2DED028B83B008EE101ADDF8E8
:1014E000389001929846FFF761FD002800F0BB801C
:1014F0000025D9F800B006462C46A34508D8454536
:1015000012D2019B4FF03C025A55D9F800B0013578
:10151000631C5B4508D3454506D2019B4FF02F0263
:101520005A55D9F800B00135D6F804A05046FEF758
:1015300067FE023427185F453FD801D1454554D393
:10154000D6F80CB07C1CBBF1000F17D09BF8003014
:10155000A3B1D9F800A0A24509D8454507D2019A00
:101560003B235355D6F80CB0D9F800A001355846A6
:10157000FEF746FE02373C1854453BD8454504D992
:10158000D9F80030621B9A4246D83046FFF714FD66
:101590000646002856D0D9F800B0002CADD0A3459F
:1015A00007D8454505D2019A2C235355D9F800B0E8
:1015B00001350134A345ABD8A1E7019AABEB040B8D
:1015C00008F101015019BBF1000FACBF0AEB0B038E
:1015D0000AF10003491B284A08F00EFD0544454561
:1015E00030D2D9F800309F42AAD3019A3E235355F6
:1015F0000135A5E7019AAAEB070308F1010150198B
:10160000002BACBF5B440BF10003491B1A4A08F0E6
:10161000F3FC05444545B8D9019918EE100A2A464D
:1016200001F034F818EE100A282100F0B5FFD6B109
:10163000D9F800304344C9F8003003B0BDEC028B48
:10164000BDE8F08F002DE7D1002CF0D0822118EEFC
:10165000100A00F08FFF18EE100A08490F2201F05F
:1016600015F8002EE4D14FF0FF33C9F8003003B075
:10167000BDEC028BBDE8F08F7CF100005CF0000057
:10168000014804F03FBC00BFB401002038B5038816
:1016900004463BB15C2B0DD188290FD082290DD097
:1016A000012038BD1B48802101F05EFD5C232380B2
:1016B000012038BD00230380032038BD00F0EAF884
:1016C0000546F0B900F0CAF850EA010319D0124BF0
:1016D000C9014FEAC01C41EA5061634575EB010343
:1016E00013D3BCF57A7F71F1000311D34FF47A72F2
:1016F000002360460DF0F4FA0146064801F034FD7F
:10170000D4E7064804F0FEFBD0E74FF4F051F4E7CD
:101710000121F2E7C00B0020E7337500B40100207F
:1017200010B5FFF701F90C4B1968411A03D10B4BA7
:10173000D3E9000110BD094A18604FF47A70A1FB8B
:1017400000131468C80940EA43605168001941EB6E
:10175000D311C2E9000110BDBC0B00201805002008
:101760000148002104F0EEBAB40100202DE9F04355
:10177000244A137883B081464BB3DFF88C80D8F8C5
:1017800000702148494602F0CBFAD8F8001079B32E
:10179000D9E904654FF0000C03E00C688C4654B3A3
:1017A0002146D1E904349E4275EB0403F5D24A4642
:1017B0001548614602F0D8FAD8F80090B94514D01F
:1017C000124B9B68019303B0BDE8F04318470F49E3
:1017D000DFF834800F68C8F8003001211170002F45
:1017E000CFD0B847D8F80070CBE703B0BDE8F0839E
:1017F000B9F1000FE2D04A46034802F0B5FAD8F832
:101800000090DBE7B52F0020D00B00209CF10000FA
:10181000064B10B55B6804469847C4E904012146AD
:101820000348BDE8104002F07BBA00BF9CF1000005
:10183000D00B0020084970B5496805461E4614467D
:101840008847241846EB0101C5E904412846BDE854
:101850007040FFF78BBF00BF9CF1000010B50B4B31
:101860001C687CB10A4B5B689847D4E9042390421A
:1018700071EB030402D30020014610BD101A63EB84
:10188000010110BD4EF66020214610BDD00B002096
:101890009CF10000F8B5124F124E7D68A8473468DD
:1018A0002CB1D4E90423904271EB030301D2002050
:1018B000F8BD2146304602F033FA63680BB120468A
:1018C0009847BB6898473368002BF0D0D3E904648D
:1018D000A847B04271EB04032CBF01200020F8BDE3
:1018E0009CF10000D00B002070B5064609480D465B
:1018F00002F036FB044658B1002326302946A68064
:1019000084F8243000F01AF90348214602F0BCF9AB
:10191000204670BDC4010020D40B00202DE9F04109
:1019200090F8463013F0300F0446C3F301152FD161
:1019300090F82430042B13D8B0F8442000F146016D
:10194000263000F031F994F82430B3B3226A520003
:10195000226204F108000023BDE8F041FFF76ABFEE
:101960002630D4E90F67FFF779FC04F10800FFF790
:101970004FFF1E48214602F0D3F91D48214602F0D0
:101980000BFB8EB3294638463346BDE8F041184775
:10199000B0F8442000F14601263000F005F904F1CA
:1019A0000800FFF735FF2146104802F0B9F921463B
:1019B0000F48BDE8F04102F0EFBA0E4BC4E9033422
:1019C00004F028FB0C4AA2FB0032920A40F2DD53DD
:1019D00003FB120202F6B832226204F1080000236F
:1019E000BDE8F041FFF726BFBDE8F081D40B002031
:1019F000C4010020FD190000B76FA5AE806830B1AA
:101A000090F82430013380F82430FFF787BF704707
:101A100070B110B504460830FFF7FAFE21460548BC
:101A200002F07EF921460448BDE8104002F0B4BA45
:101A3000704700BFD40B0020C4010020044B02E01B
:101A40009A88824202D01B68002BF9D11846704751
:101A5000D40B002070B50288044662B140F2DD1359
:101A60009A4217D11B4B1B788B4217D040F2DD13E3
:101A70002380012070BD1146104609F017F9164B5E
:101A8000186020B343F21633038240F2DD13238043
:101A90000120EFE700230380032070BD0F4B1B786C
:101AA0009B07E3D50E4B0F490F4D09880F4E03F1ED
:101AB00020028A5A2A820021A9740FCB85E80F00E0
:101AC0000B4B328819682846FFF70AF8CEE72080CA
:101AD000022070BDCB2F0020F00B0020CF2F002064
:101AE000D0280020AA2F0020DC0B0020AC2F0020E3
:101AF000C82D0020B0B110B5837C044673B90B48E3
:101B000004F056F8204602F073F9208A0AF09AFF92
:101B1000BDE810400146064804F04AB8054804F004
:101B200047F8EFE7044804F043B800BFC0F10000F5
:101B3000CCF10000B4F10000A8F100008B68D1F8EE
:101B400000C04A6800B5D1F80CE0C0F80CE0C0F85D
:101B500000C0426083600B8A03828B7C83745DF8D3
:101B600004FB00BF38B5102205460C460BF0ACF95B
:101B700058B92A8A238A9A4200D038BDA87CA37C0F
:101B8000C01AB0FA80F0400938BD002038BD00BF4F
:101B9000014B1868704700BFC82D00200148002184
:101BA00004F0D0B8D001002070B582B0B8B11446AE
:101BB000028848F2FE039A420E46054603D00A4BBD
:101BC0005B6A984758B1094A2B8A106800932246ED
:101BD0002B4631460AF0EAFA204602B070BD4FF0BB
:101BE000FF34204602B070BD6CF50000F00B002001
:101BF0000C2841D9B0F5867F94BF6FF02F0C6FF0A1
:101C00001F0C0C2936D9B1F5867F94BF0D230E2306
:101C100043EA0C03B0F5867F137017D96FF486730F
:101C2000C3181B0A0D385370907002230320B1F5BE
:101C3000867F16D96FF4867C8C444FEA1C2C02F800
:101C400000C01A440D39D81C917070470C280ED969
:101C50000D38B1F5867F50704FF001034FF0020050
:101C6000E8D80C2902D90D391154013070470120F0
:101C70000023DCE74BB2CBE703014FFA83FCC0E75C
:101C80002DE9F0411C46260C14F07F484FEA064629
:101C90000B46154614BF01210021CEB1013124F0BD
:101CA000FF07C01A02312A46FFF7A2FFB8F1000F62
:101CB00017D0230E2B54431C16B3220CEA540230C7
:101CC00017B1230A2B5401302C540130BDE8F081A8
:101CD00034F0FF07E5D14CB9BDE8F041C01AFFF779
:101CE00087BF76B1230C2B540130EAE7C01A0131CB
:101CF000FFF77EFFB8F1000FDBD1002CE6D0E3E761
:101D00001846002FDDD1002CE0D0DDE72DE9F04FA3
:101D100083B01F460C9B9DF834B0002401338246EB
:101D20008E4691460193B8462646A44604E0019BA0
:101D300001349C42A44622D817F80C3007EB0C055E
:101D4000A5EB08055B4509EB0602AAEB0E00294648
:101D500002D00C9B6345EAD1FFF74AFF0644414697
:101D600009EB06002A460BF0E1F80134019B07EB72
:101D7000040801349C422E44D646A446DCD93046A1
:101D800003B0BDE8F08F00BF08B504F043F9014B84
:101D9000188008BD9C2F0020024B1888013080B2AB
:101DA000188070479C2F0020F8B504460F46164651
:101DB0001D46AC2200210BF0CFF96771A671258179
:101DC000F8BD00BF2DE9F04301220023016002713C
:101DD0000B7002680E461378017943EA8113137081
:101DE0000268437911781B0103F030030B43137031
:101DF0000268837A117803F00F030B4313700368B2
:101E000082795A70038902681B0A937003680289F9
:101E1000DA70837983B00446002B00F06A8102688F
:101E2000837A151D6BB16FF0030100F10B03891A62
:101E300013F8012B05F8012B94F80AC06A18944591
:101E4000F6D8E37C9807C3F3400111D594F86A7083
:101E50002A4639460120FFF7CBFE3A46804604F178
:101E60006B0128180BF062F84744E37C3D440121E4
:101E70001A0711D5D4E910792A46C1F10300394671
:101E8000FFF7B6FE494680463A4628180BF04EF852
:101E90004744E37C3D440321DF0612D594F82470C7
:101EA0002A46C1F104003946FFF7A2FE3A468046B1
:101EB00004F1250128180BF039F84744E37C3D4430
:101EC0000421980606D5C1F10501090105F8011B99
:101ED000E37C05215A0607D5636E2A460620FFF7E4
:101EE000CFFEE37C05440621DB0907D02A46B4F87F
:101EF00050300720FFF7C4FE07210544237DDF078C
:101F00000BD52F230193A36C0093E36C2A46082082
:101F1000FFF7FCFE237D0544082118070BD52F236E
:101F20000193E36D0093236E2A460B20FFF7EEFE2C
:101F3000237D05440B21DA0607D5A38B2A460C2006
:101F4000FFF79EFE237D05440C215F0607D5236A1B
:101F50002A460E20FFF794FE237D05440E21DB095F
:101F60000CD026230193D4F8943000932A46D4F859
:101F700098300F20FFF7CAFE0F210544637D9807B4
:101F800008D5B4F868302A461120FFF779FE637D42
:101F900005441121DA060BD526230193636D0093C6
:101FA000A36D2A461420FFF7B1FE637D054414217A
:101FB000DB091CD0636F94F878201B01002A40F0E5
:101FC0009C80B4F87A200020120900F1010C52081C
:101FD00086461FFA8CF0F8D118B10EF00F0E43EAC6
:101FE0000E032A461720FFF74BFE17210544A37D59
:101FF0001F071DD5D4F8803094F884201B01002AD7
:102000007ED1B4F886200020120900F1010C52089C
:1020100086461FFA8CF0F8D118B10EF00F0E43EA85
:102020000E032A461B20FFF72BFEA37D05441B2130
:10203000D80607D52A46D4F88C301C20FFF720FE9E
:102040001C210544E37D1A0711D5D4E90C792A46F1
:10205000C1F123003946FFF7CBFD494680463A4699
:1020600028180AF063FF4744E37D3D442321DB0940
:1020700010D0D4E90E792A46C1F127003946FFF77E
:10208000B7FD8046494628183A4647440AF04EFFB5
:102090003D442721A37EDB0612D42368EB1A3E2B96
:1020A00019DCB4F8A420F2B9D4F8A81028460AF034
:1020B000D7FFB4F8A400AD1B284403B0BDE8F083FB
:1020C000D4F890302A463C20FFF7DAFD2368054417
:1020D000EB1A3E2BE5DD0C4B0C4A002020601A6009
:1020E00003B0BDE8F083FF2305F8013BB4F8A4205A
:1020F000DAE7042003B0BDE8F08343F0080360E7AB
:1021000043F008037DE700BFE0010020E0F100009C
:10211000032A40F2D0802DE9F84F05460E4691463D
:102120000021A82204300BF017F82E6096F800A0CA
:102130004FEA9A1A85F804A03378C3F301136B7140
:10214000327802F00F02AA727378AB717388BAF119
:10215000010F5BBA2B817AD1082A00F2AE80311DC3
:1021600001EB020806EB090BD84573D805F10B000B
:102170000AF0DCFE0027D845C5F81370C5F81770C3
:1021800080F0A68098F8004004F0F003F02B00F0F7
:10219000818121090D2904F00F045ED00E296DD034
:1021A00008F101030D2C62D00E2C74D003EB04084F
:1021B000C3454FD30F443C2F4CD805EBD70107F054
:1021C0000702C87C0AFA02F20243CA747A1E3B2A4A
:1021D00078D8DFE812F07F0077008B008E009A003D
:1021E0009D00AA00BA0077007700C100C800770000
:1021F000D700E4007700EC0077007700FC00770060
:10220000770003017700770077003E012201770015
:10221000770077007700770077006B007700770012
:1022200077006B0077007700770077007700770002
:1022300077007700770077007700770077007700E6
:102240007700770077007700770077003001B14B97
:10225000B14A1A608020BDE8F88F08F102039B455F
:10226000F8D398F801100D2C01F10D019CD1581CE8
:102270008345EFD31C7803460D3497E708F1030339
:102280009B45E7D398F8021098F8012001F20D1150
:1022900001EB022186E7981C8345DBD35A781C7832
:1022A00002F20D1202EB042403467FE7994B9B4A8E
:1022B0001A60A520CFE780207047964B984A1A6095
:1022C0008020C8E7FB0700F14B81C3453FF65AAFBA
:1022D0000020C0E7082C224628BF082285F86A2083
:1022E000194605F16B000AF021FEEEE7C5E910433F
:1022F000EBE7082C224628BF082285F8242019463F
:1023000005F125000AF012FEDFE785F89CA0DCE766
:102310004CB1013C1919013B002413F8012F8B42E9
:1023200042EA0424F9D16C66CFE7224654B1013C5D
:102330001C440022013B13F8011F9C4241EA022287
:10234000F9D192B2A5F85020BFE7AA6C002A40F05C
:10235000B180C5E91243B8E7EA6D002A40F0BA80BF
:10236000C5E91743B1E7224654B1013C1C440022A1
:10237000013B13F8011F9C4241EA0222F9D192B2BB
:10238000AA83A2E74CB1611E19440024013B13F853
:10239000012F994242EA0424F9D12C6295E7D5F83D
:1023A0009420002A40F0BE80C5E925438DE72246EF
:1023B00054B1013C1C440022013B13F8011F9C4214
:1023C00041EA0222F9D192B2A5F868207DE76A6D50
:1023D000002A40F08F80C5E9154376E7002C00F015
:1023E000B780013C1C440021013B13F8012F9C42A3
:1023F00042EA0121F9D101F007021023934021F0B4
:102400000F0494409BB2C1F3C002090985F87820FB
:10241000A5F87A30EC67696757E74CB1611E19443B
:102420000024013B13F8012F994242EA0424F9D118
:10243000C5F88C4049E74CB1611E19440024013BAA
:1024400013F8012F994242EA0424F9D1C5F89040CB
:102450003BE7002C00F08080013C1C440021013B44
:1024600013F8012F9C4242EA0121F9D101F0070241
:102470001023934021F00F0494409BB2C1F3C0029B
:10248000090985F88420A5F88630C5F88840C5F884
:1024900080101AE708F101039E1BA9EB0606B6B2ED
:1024A000402E88BF40260020C5F8A830A5F8A460BB
:1024B0009855D0E61946EB6C2F209854A86CEB6C1D
:1024C0000130A864224618440AF0CAFDAB6C2344CC
:1024D000AB64FAE619462B6E2F209854E86D2B6EEC
:1024E0000130E865224618440AF0BAFDEB6D23443A
:1024F000EB65EAE61946AB6D26209854686DAB6D26
:1025000001306865224618440AF0AAFD6B6D234429
:102510006B65DAE6E001002010F2000050F20000E6
:1025200028F200001946D5F8983026209854D5F89E
:102530009400D5F898300130C5F89400224618442C
:102540000AF08EFDD5F894302344C5F89430BCE6EB
:1025500021461023224659E721461023224690E7C0
:10256000024B034A1A60822075E600BFE00100209A
:102570007CF20000FF299ABF817101200020704782
:1025800010B5082A28BF0822144682720B300AF0C0
:10259000CDFC204610BD00BF037D818343F01003B6
:1025A00003750120704700BF037DC3F3C0021B0702
:1025B00002D5036E0B60C26D104670470B782F2B4F
:1025C00010B5044603D111F8013F2F2BFBD0216633
:1025D0000846FDF715FE237DE06543F008032375EB
:1025E00010BD00BFC27C0346C2F38010520644BF38
:1025F0005B6E0B60704700BFC37C416643F04003D5
:10260000C3740120704700BF8446407DC01115D0BF
:1026100010B411B1DCF874400C6012B19CF8781061
:10262000117013B1BCF87A201A80019B1BB1019A7A
:10263000DCF87C3013605DF8044B7047704700BFD6
:10264000A3F1100CBCF5FE6F02D8B1F5801F01D3C9
:102650000020704790F815C04167003A18BF01226A
:102660006CF07F0C80F87820A0F87A3080F815C0E4
:102670000120704711B1D0F8A8300B60D0F8A83015
:1026800013B1B0F8A400704718467047402A28BF1D
:102690004022C0F8A810A0F8A4201046704700BF40
:1026A0002DE9F04103F032FAFEF70EF905F0F8FFDC
:1026B00003F07AFB00216548654FDFF8E881654D3E
:1026C000654E664C03F03EFB00F0F8FB0AF06CFB35
:1026D00007F0B0FC03F022FA03F032FC604B1B68F9
:1026E00098477B689847D8F804309847AA79EB79DF
:1026F00003EB022333802368022B38DC594B296813
:102700006A6819605A605848002103F01BFB4FF0BB
:10271000FF3008F027FF2368022B054612DC03F088
:1027200025FAFEF723FC5148FDF75EFF0AF064FB33
:1027300003F040FB04460AF067FB002CF8D103F0DD
:102740001BFAF5E74A4A4B494B4803F031FA4B482C
:1027500003F02EFA2368022BE1DD284601F048FB46
:102760002368022BDBDD0A2003F0DAFBD7E7404ABF
:102770004049414803F01CFA414803F0D3FB236869
:10278000022BBBDD3A4A3B493B4803F011FA3D4B73
:102790003D48196803F00CFA2368022BAEDD344A79
:1027A0003449354803F004FAD8F80010374803F0EC
:1027B000FFF92368022BA1DD2D4A2E492E4803F094
:1027C000F7F93968324803F0F3F92368022B95DDF5
:1027D000274A2849284803F0EBF92E484AF6CD311C
:1027E00003F0E6F92368022B88DD214A21492248BB
:1027F00003F0DEF928481A2103F0DAF92368022BE6
:102800007FF77CAF1A4A1B491B4803F0D1F9318886
:10281000224803F0CDF92368022B7FF76FAF144AEB
:102820001449154803F0C4F91D4803F0C1F92368A1
:10283000022B7FF763AF284601F0EAFA2368022BE8
:102840007FF75CAF0A2003F06BFB57E7180200200C
:10285000A8F300002C0E00209E2F0020380200203C
:1028600070F40000D02D00202803002060F100004B
:1028700098F20000A0F20000A8F200007CF3000033
:10288000B8F200006CF50000F0F2000000F3000068
:102890000CF3000018F3000034F3000054F30000C0
:1028A00064F30000ECF500002DE9F0430D468B6861
:1028B00092F82C9083B00646506BD3E9007814460A
:1028C00001F02EFA686803F077FBA9681C4801F054
:1028D00063FB1C48294601F05FFB636B1B6813B365
:1028E0000023A38503F096FB174BA3FB0023C11A1B
:1028F00003EB51039B08C3EBC303C11A134B144AE8
:102900001B68009304F10C00234600F0E1FA3FB18C
:102910004A46314640463B4603B0BDE8F0431847BF
:1029200003B0BDE8F08304F10C0000F019FB214670
:10293000084801F0F5F92146074801F02DFBE6E7CC
:10294000E4010020FC0100202549922438140020D5
:102950005D2900005C0C0020F001002018B32DE977
:10296000F047436B1D6886B00446CDB1686803F03C
:1029700039FB7C490C2003F0B1F80121072003F05A
:10298000A1F8794B5B68984700280DDAAB683BB13A
:1029900005202246294606B0BDE8F047FFF784BF70
:1029A00006B0BDE8F087704703F02EF86F4F90F83F
:1029B00002807B68039303F027F8064603F02EF8A5
:1029C000039B01463046984703F098F8BB69039390
:1029D0000646984700282DD1002E64D1D7F81C90C8
:1029E000C84738BBBB681E4603F018F8B04700283C
:1029F0006ED002281ED0AB68002BD1D00420C8E7CF
:102A000005F080FE6FF028031E1A03E005F07AFE41
:102A1000C64202D5C8470028F8D0C847002872D05F
:102A20003B69032105A89847032803D19DF8163078
:102A300043453ED0AA68002AB2D094F82D104B1C12
:102A4000DBB2052B84F82D301DD8127A94F82C00B7
:102A5000904224D2012B88BF1F267CD903F0DAFADA
:102A6000434AB0FBF6F112680092424A01FB16019C
:102A7000234604F10C0000F02BFA686806B0BDE8AC
:102A8000F04703F093BA94F82C300133DBB2002105
:102A900084F82D1084F82C30127A9A4216D82246E7
:102AA0002946012077E7BE6802F0B8FFB04700284A
:102AB0009FD1AB68002B3FF473AF94F82C3000200B
:102AC000013384F82D0084F82C3062E70726C5E72F
:102AD00005F018FE6FF0180AAAEB000A04E005F0F2
:102AE00011FE1AEB000F02D5C8470028F7D0039B50
:102AF0009847002884D1C847002881D17B6998472E
:102B000000283FF47DAFA96800293FF449AF94F84D
:102B10002C3001330022DBB284F82D2084F82C30D5
:102B20000A7A9A4203D822462946022033E703F064
:102B300071FA114BA3FB0023C21A03EB52030C4A98
:102B40009B0812680092C3EBC303C11A094A04F13F
:102B50000C0023468FE70B1D0126DBB206FA03F3B8
:102B60005E1E7BE72C0E0020E0F3000070F40000F6
:102B7000381400205D290000254992242DE9F041F8
:102B8000064682B00D200F4602F0B0FF054601F068
:102B900071F901210B2002F095FF454B1C6814B917
:102BA00016E02468A4B1201D294601F065F800282C
:102BB000F7D0606B01F0CEF807281EDD002E57D04D
:102BC000012206213846334602B0BDE8F0411847DD
:102BD000384801F0C5F904460028EFD02946201DE9
:102BE00001F044F8002304F130023148A385626308
:102BF0002363214601F048F8DBE72F4801F0B0F9E4
:102C0000054600283FD02D4801F0AAF9A860002809
:102C100035D003F0A9F9686068B30520D5F80880BD
:102C200002F056FFC8E9006710F0FF0006BF082356
:102C300088F8083088F80800606B294601F024F80D
:102C4000636B1B689D4213D194F82D30012B28D95A
:102C50001F2503F0DFF91A4BB0FBF5F11B68009359
:102C600001FB1501174A234604F10C0000F030F96E
:102C700002B0BDE8F081A968104801F08DF90E4856
:102C8000294601F089F9606B01F064F8002895D1BC
:102C90002146074801F044F82146064801F07CF936
:102CA0008CE70333DBB201259D40013DD1E700BF36
:102CB0005C0C0020F0010020FC010020E401002059
:102CC000381400205D29000008B5054801F036F9E8
:102CD000044801F033F9BDE80840034801F02EB97B
:102CE000FC010020E4010020F0010020014B1B6AE0
:102CF000184700BF70F40000014B5B6A184700BF23
:102D000070F4000010B50D4B82B01B6898470C4B57
:102D100004469B6A01A91920984701280BD0002C72
:102D2000019BB8BF1524802BD4BFC4EB0300C4F1B2
:102D3000800002B010BD002002B010BDE0F3000022
:102D400070F40000FFF71ABF30B50D4C83B0A56AD0
:102D500069461920A84748B901A90420A84738B1F5
:102D600001F080F8FFF7B0FF236A984703B030BD49
:102D70000199E36A21F00201019104209847EFE7ED
:102D800070F4000030B583B002F042FE032804D096
:102D9000264B9B689847002801DA03B030BD0D2010
:102DA00002F0A4FE224900F067FF18B902F0A6FE67
:102DB0000028F2D00C2002F099FE1D4900F05CFFC3
:102DC00004460028E9D101F05FF80546A0B10720CC
:102DD00002F07EFE0028E0D002238DF804308DF84A
:102DE000054002F011FE134B8278DB688DF8062057
:102DF000032101A89847D0E701F06CF8072002F002
:102E000067FE18B90C4B9B689847C6E702238DF8FC
:102E100004308DF8055002F0F7FD064B8278DB6830
:102E20008DF80620032101A89847EBE7E0F30000A6
:102E30002C0E002070F40000ECF50000F8B50388BB
:102E400005462BB1452B14D1882916D00120F8BD99
:102E5000174B1C6834B1A168201D00F085F9246867
:102E6000002CF8D1134B01221A7045232B8001202E
:102E7000F8BD002303800320F8BD0D4B1C68002C17
:102E8000F3D0231D9A4205D02468231D002CECD0DA
:102E90009A42F9D10648084E214600F041FFD4E994
:102EA0000523376832600BB1E06998473760DCE78B
:102EB0003C0D0020B72F002038140020024B03489F
:102EC0000021196002F03EBF3C0D002008020020E6
:102ED00070B582610D4A04461078E361049B63611A
:102EE00030B9A1600A482146BDE8704000F0CCBE70
:102EF000084D094B2E682B60201D00F035F92E601F
:102F000021460348BDE8704000F0BEBEB72F002048
:102F10003C0D0020381400200802002070B50C4B36
:102F20001B7804462BB921460A48BDE8704000F0E2
:102F3000ABBE094D094B2E682B60043000F01EF922
:102F40002E6021460348BDE8704000F09DBE00BFE2
:102F5000B72F00203C0D002038140020080200206C
:102F600010B50A4B1B7804463BB9C0E90333214630
:102F70000748BDE8104000F0D3BE043000F010F95F
:102F800021460348BDE8104000F0CABEB72F00201C
:102F90003C0D002008B5084B1B78014623B10069A1
:102FA000B0FA80F0400908BD044800F013FF80F03B
:102FB0000100C0B208BD00BFB72F00203C0D0020AB
:102FC00010B50446C0B208F001F8204610BD00BF9D
:102FD00070B570B10E46451E002404E0A64206D02E
:102FE00007F0F4FF013415F8010F0028F6D1204650
:102FF00070BD0446FBE700BF10B5FDF795FC0B4B19
:103000001A68D2E9003192680B44191A52B1D2E918
:10301000003423441B1A9268994228BF1946002A9B
:10302000F5D14318024A136010BD00BF440D0020C3
:10303000400D00202DE9F843038805465BB3592B6A
:103040002CD187292FD0822920D12C4FDFF8B480B2
:103050003C684FF00009CCB1002603E0A368264687
:10306000A3B11C46204607F0A3FF0028F6D0E06875
:103070002246882102F014FF03464046002B2AD046
:1030800002F040FFA3682646002BEAD159232B808B
:103090000120BDE8F883194A1360F7E70023038095
:1030A0000320BDE8F883154F3968002019B9EDE712
:1030B00089680120D9B1CB689342F9D000B1396059
:1030C0008B68002BE2D0D868904207BF9B688B606A
:1030D00019469B68F5E7E360A3686EB1B3603B688F
:1030E000C4F808902BB1FFF787FF3C68B3E739605D
:1030F000CCE7034A1360C9E73B60F1E7440D0020C9
:10310000400D00201802002010B50446104802F0BF
:10311000F9FE1049E3680A684BB142B194420FD0FE
:10312000134601E09C420BD09B68002BFAD10A4B5E
:10313000A2601B68E3600C60BDE81040FFF75CBF55
:10314000054B1B68E360BDE81040FFF755BF00BFAB
:1031500018020020440D002038140020014802F01D
:10316000D1BE00BF1802002010B5044607F00AFFC8
:103170002046BDE81040FFF7C7BF00BF10B50446AA
:1031800007F008FF2046BDE81040FFF7BDBF00BFB5
:10319000024B1868003818BF01207047440D00200A
:1031A00010B5124B19688142044614D00B462BB15E
:1031B0009A68A24206D01346002BF9D10023C4E935
:1031C000023310BDA2689A6049B1FFF715FF0023D2
:1031D000C4E9023310BD82681A60002AF5D1044B9D
:1031E00000221A600023C4E9023310BD440D002000
:1031F000400D0020014B1888704700BFE8030020F5
:1032000000283ED0037A022B30B410D00378022B72
:1032100015D00379B3B10024C37913F0030318BFA9
:10322000012301B10C6002B1136030BC7047C57955
:10323000447A037965B90CB9012BF2D0DBB10023D4
:103240001C46EEE7447A14F0030418BF0124E3E7B8
:10325000C4B1032D37D1032C2ED0022C24D143BB73
:10326000022D2DD00123032D24D1A4F10204B4FAA0
:1032700084F46409D5E7023C012C8CBF00240124AE
:10328000CFE770474BB9022D08BF0123EAD1A4F163
:103290000304B4FA84F46409C3E7032D01D0022DBA
:1032A00002D123461C46BCE7002BC8D1022DDAD13F
:1032B000EDE701230024B4E7002BC0D10123D4E7BC
:1032C00001231C46ADE7022DC7D1002BF1D1022C02
:1032D0004FF00103DBD11C46A3E700BF30B500234C
:1032E0000B608B80437DDB075CBF01230B70037E8B
:1032F000012B83B00D46044623D901AA694604F187
:103300001000FFF77DFF009B0BB10223EB70019BC8
:103310000BB102236B70E37D03F00303022B03D098
:10332000032B14BF00230823AB70637E03F0030359
:10333000022B03D0032B14BF002308232B7103B0EF
:1033400030BDC37D13F0030309D0437E13F00303A4
:1033500005D0C38B828B9B1AB3FA83F35B09237569
:10336000CBE700BF02280CBF012307230B441A78C8
:10337000FF2A184603F1FF3303D18142F7D1012020
:1033800070470020704700BF00B583B06946FFF763
:10339000A5FF9DF800309DF801209DF802009DF8E2
:1033A00003100233134403449DF804209DF80500E4
:1033B0000B441344184403B05DF804FB437882784F
:1033C00090F800C0DB00120102F0100203F00803C5
:1033D00013430CF0070290F803C0134302794FEA3D
:1033E0004C1C0CF0200C920143EA0C0302F040024A
:1033F00013430B704379827990F809C003F00103FD
:10340000520043EA8C1302F0020290F807C0134303
:10341000027A4FEA8C0000F00C001201034302F024
:10342000300213434B70704770B582B004460D46AE
:103430006946FFF753FF04F110002946FFF7BEFF6E
:103440009DF80030012B04BFA37EAB709DF80130C6
:103450000CBF03200220022B06D1A38B2B54A28B7E
:10346000431C120AEA5402309DF802605EB1731EDA
:103470002344291893F800C001F801CBA34203F1BB
:10348000FF33F7D130449DF80330022B06D1E38B94
:103490002B54E28B431C120AEA5402309DF804605C
:1034A00056B1F31D23442918073413F8012901F8F4
:1034B000012BA342F9D1304402B070BD02784378A9
:1034C000C2F3C00002F0070C4870C2F3401081F84C
:1034D00000C0C870C2F3001C03F00100C2F38012E8
:1034E00081F802C00A71C3F3400CC3F301124871A2
:1034F000C3F381009B0981F806C0C8710A724B7240
:10350000704700BF012943DD2DE9F04186B00F4629
:1035100003A914460546FFF7D1FF0B4603CB9DF8E0
:1035200011201B882061616123836AB3AE1C03A84C
:1035300002AA01A9FFF764FE9DF81380B8F1000FFD
:1035400043D0029B002B31D1B8F1020FA38367D087
:10355000B8F1030F4DD09DF81580B8F1000F2CD0B5
:10356000019BBBB9A38BE383B8F1020F4DD0B8F137
:10357000030F31D0701B3B1A8742C4E90E6300DA97
:10358000002006B0BDE8F081AB78A376EE1CCEE754
:1035900000207047727816F8023B03EB0223029A70
:1035A0009BB2E383002ADFD1A383DDE7727816F8AC
:1035B000023B03EB02239BB2C6E71E4904F108005D
:1035C00000F054FBA4F81E80D4E71A49204600F00E
:1035D0004DFBA4F81C80BEE706F10800034604F189
:1035E000080213F8011D02F8011BB342F9D1064687
:1035F000C0E706F108000346621E13F8011D02F839
:10360000011FB342F9D10646A5E70A4904F10800B3
:1036100000F02CFB7378237216F8023B6372A9E763
:103620000449204600F022FB7378237016F8023B11
:10363000637090E7ECF3000030B591B002F0D4F97C
:10364000044602F0E5F96A4601462046FFF75AFFB4
:1036500000283ED0044602F0ADF9D0B39DF810101A
:103660000B2002F02FFA9DF81310072002F02AFA1F
:103670009DF817308BB1BDF81C50FFF7BBFD85429C
:1036800005D0BDF81C204FF6FF739A4221D19DF85A
:1036900017006946FFF766FEB0B102A90C2002F0E0
:1036A0001DFA9DF815303BB14FF6FF71062002F070
:1036B00009FA204611B030BD9DF81A10062002F01C
:1036C00001FA204611B030BD69460D2002F006FA1D
:1036D000E3E74FF0FF34ECE7F8B505460B2014465E
:1036E0000E46A84700232074A37496B3E374637551
:1036F0000820A847002701232376A07567740620B9
:10370000A847A076FFF776FDE0830920A8470128A7
:103710000CBF3B4603236376FFF76CFDA0830A20B2
:10372000A84701281AD066B90323E375637E022BEC
:103730000CD0E37DA3F10203B3FA83F35B09237595
:10374000F8BD0223E375637E022BF2D101232375BA
:10375000F8BD0720A8476675E074C9E7E775E5E797
:1037600030B591B00546FFF745FD4FF6FF74A04216
:103770003AD040220021684609F0EEFC02F0BEF982
:103780006A4601461A48FFF7A7FF02F0B7F918B3D7
:10379000ADF800400C2002F0A9F9014602A800F0A3
:1037A00065FA02F021F90E9002F032F903466846FC
:1037B0000F93FFF7E9FD044615B9204611B030BD5F
:1037C00002F0C8F880B102F01FF901466846FFF721
:1037D0002BFE204611B030BD0D2002F087F90146C6
:1037E000684600F043FAD5E74FF0FF34E5E700BF45
:1037F000D15A00000120FFF7B3BF00BF0020FFF740
:10380000AFBF00BF0649074A074B9B1A03DD043BC5
:10381000C858D050FBDC07F06DF9FCF777FE0000CC
:1038200014F8000000000020F8030020FEE7FEE787
:10383000FEE7FEE7FEE7FEE7FEE7FEE7FEE7FEE760
:1038400000F01F0301219940C0F3471000F068B851
:1038500008B501F0D5FB00B108BDBDE8084001F096
:1038600097BB00BF30B583B00223002501F01F01D4
:103870008DF8063012F00C03ADF80450144641EAFE
:10388000401508D0042B26D0082B28D00C2B04BFC1
:1038900003238DF8043014F0030306D0022B16D056
:1038A000012B04BF03238DF805300F4A01A92846D8
:1038B00001F0B0FB230604D4284601F0ABFC03B0B2
:1038C00030BD0121284601F035FC03B030BD012395
:1038D0008DF80530E9E701238DF80430DBE702239A
:1038E0008DF80430D7E700BF4138000001F01F0118
:1038F00041EA40101F28CABF054B4FF0A04300F01B
:103900001F00D3F8101521FA00F000F001007047F5
:10391000000300500146014800F0B6B9480D0020F0
:1039200070B50C4B1C689CB105460E4601E024683E
:1039300074B1237AAB42FAD1E36816EA0301F6D0F8
:1039400063682846002BF2D098472468002CF0D1F9
:1039500070BD00BF480D0020024B00221A60FFF727
:1039600077BF00BF480D0020EFF3108072B670479C
:1039700080F31088704700BF10B51B4A1B4C002312
:103980004FF0010C40FA03F1C90713D59178B9B192
:10399000117892F801E001F01F0141EA4E111F2950
:1039A000C6BF01F01F01A6464FF0A04E0CFA01F170
:1039B000CEF808150133042B02F10302E2D110BD49
:1039C000117892F801E001F01F0141EA4E111F2920
:1039D000C6BF01F01F01A6464FF0A04E0CFA01F140
:1039E000CEF80C15E6E700BF2CF0000000030050F5
:1039F0000F4A10B40F4C02F10C0C032013785178CD
:103A000003F01F0343EA41131F2BC6BF03F01F033C
:103A100021464FF0A04103F5E0730332944541F88D
:103A20002300EBD15DF8044B0F20FFF7A5BF00BFCB
:103A30002CF000000003005010B50948FFF76EFAA3
:103A4000084800F0DDFB48B1064C037A5B080146EC
:103A50000372204600F0A0FB0028F6D110BD00BF85
:103A60000C0E0020280200200146014800F0F6BBA1
:103A70002802002080B110B50446FCF755FF2368EA
:103A8000C01AB0F5963F05D2207A032894BF0020D3
:103A9000012010BD002010BD0020704770B5054604
:103AA000144689B1022907D006290CD129462B4892
:103AB000BDE8704000F0D2BB2848294600F0CEFB9C
:103AC0000646002832D170BD2448294600F0C6FBC6
:103AD0000646002835D0FCF727FF337A30602344B0
:103AE000102BA8BF10233372FCF71EFF3368C01AD7
:103AF000E401B0F5963FA4B208D2337A042BB38820
:103B000034BF19220A222BB9B48070BDB3881922A0
:103B1000002BF9D0C2F16400114904FB02F203FB4F
:103B20000022A1FB02325209B28070BDFCF7FCFEFC
:103B3000337A30602344102BA8BF102333720C3427
:103B4000D2E7334605480822294600F0A3FB064683
:103B50000028B8D047F6FF73C380BCE728020020D6
:103B60001F85EB5138B50546042001F0B1FF294609
:103B70000446224824B200F071FB40B3B0F906209D
:103B800047F6FF739A422DD004EB84035B001C4C74
:103B90005A2112FB013284FB0234D217C2EB6414A7
:103BA000838824B2C48003B138BD04F15A0212B232
:103BB00022EAE2721E2A134BA8BF1E22D201A3FBE7
:103BC0000232120902F5807292B2828038BD034639
:103BD00008220A48294600F05DFB0028E4D047F699
:103BE000FF73C3808388C480002BDDD147F6FF7349
:103BF0009C42DAD14FF48072E7E700BF2802002030
:103C00001F85EB518988888838B5094800F0F8FA93
:103C100060B1074D04462146284600F0C1FB21460D
:103C2000284600F0B9FA04460028F4D138BD00BF98
:103C30002802002000B5002183B0084800F08AFA6D
:103C4000074B084A1B680093074800234FF4E131F3
:103C5000FFF73EF903B05DF804FB00BF2802002027
:103C600038140020393A00000C0E00200B684A6816
:103C700042600360704700BF08B5082209F024F9CC
:103C8000B0FA80F0400908BD0368DBB110B400242D
:103C900000E0134699420FD01A681C46002AF8D15A
:103CA00000230B600368CBB11A461B68002BFBD1C5
:103CB00011605DF8044B70470A686CB12260002205
:103CC0001A60EDE700230B6003684BB11A461B68CE
:103CD000002BFBD1116070470260F0E70160E8E75C
:103CE0000160704730B405684DB12B46002400E0F8
:103CF0001346994207D01A681C46002AF8D10D6075
:103D000030BC016070470A683CB1226000221A6032
:103D100005680D6030BC016070470260F6E700BFC7
:103D200003689BB110B4002400E0134699421A685E
:103D300005D01C46002AF8D15DF8044B704734B119
:103D4000226000221A605DF8044B704770470260E1
:103D5000F7E700BF03682BB100201B680130002B80
:103D6000FBD170471846704730B479B1036843B14E
:103D7000002500E023469A4217D01C681D46002CFF
:103D8000F8D10B6813600A6030BC7047056845B114
:103D90002B4600E023469A4210D01C681946002C9E
:103DA000F8D11560026030BC704725B110682860FA
:103DB00000201860E5E714680460F9E739B1146879
:103DC0000C6000211960056815600260EBE711685E
:103DD0000160F6E7006848B1884202D105E08142FF
:103DE00003D000680028FAD170470120704700BF57
:103DF00000B58BB002462821684608F0BBFF694633
:103E0000024801F0D5FE0BB05DF804FB7CF1000028
:103E100008B3F8B50025114F0446012665B1EB073C
:103E20000FD52178384601F0C3FE082E12D0013597
:103E300001360134002DF2D12178384601F0B8FE68
:103E4000F5E72E2002F06CF82178384601F0B0FE3C
:103E5000082EECD1F8BD024801F0AABE04F400001F
:103E6000F4F3000008B502F0D5F8014B187008BD56
:103E7000B82F0020034B197806204A1C1A7001F055
:103E800021BE00BFB82F0020F8B5FCF74DFD104E45
:103E90000746344600250C2001F028FE2146FFF796
:103EA000EBFE103420B90135102DF4D10020F8BDFF
:103EB000062006EB051501F00BFE2B7B8342F5D1A6
:103EC000A868381AB0F5206F8CBF00200120F8BD1B
:103ED000340E002070B5184E002435460C2001F039
:103EE00005FE2946FFF7C8FE103510BB0134102C23
:103EF000F4D10F2406EB041C64465CF8100DDCF8CA
:103F00000410DCF80820DCF80C3066450FC4F3D14F
:103F1000062001F0DDFD3073FCF706FD03460C20A2
:103F2000B36001F0E3FDBDE8704001460248FFF7D1
:103F30009DBE002CDED1EBE7340E002010B5044608
:103F400042884068002109F007F923886288A06848
:103F500003FB02F2BDE81040002109F0FDB800BFEC
:103F600030B44588ADB14368002202E00132AA4274
:103F70000CD0194601330C78002CF7D101230B70BB
:103F80000588806802FB050030BC7047002030BC0B
:103F900070472846F8E700BF10B4448882685CB1D7
:103FA0008A420ED0B0F800C0002301E0914209D04F
:103FB0000133A3426244F9D14FF0FF305DF8044B66
:103FC000704700234268D15C0029F5D00020D0540E
:103FD0005DF8044B704700BF83688B4208D8428865
:103FE000008800FB023081422CBF00200120704776
:103FF00000207047418849B143680020194413F8F4
:10400000012B02B901308B42F9D170470846704745
:1040100038B50D4B0D4D1C68002818BF05463CB146
:10402000211D2846FFF728FE28B92468002CF7D167
:104030004FF0FF3038BD064A064B9068201A8010BA
:1040400003FB00F038BD00BF640F0020ECF300005C
:104050003C020020ABAAAAAAF8B50F4B1C68C4B159
:104060000E4F0F4E0F4D002004E0211D03F0D0FC39
:1040700024686CB1B368E31A9B1005FB03F3FB5C87
:10408000002BF5D10028F0D1201D2468002CF1D19F
:10409000F8BD2046F8BD00BF640F0020540F00207B
:1040A0003C020020ABAAAAAA2DE9F84F234CDFF866
:1040B000A0B0DFF88CA0DFF88C900546884604F1AC
:1040C000200754F8043FBBB19E68AEB1A5B1DAF841
:1040D0000820AA1A91100C3209FB01F10CD0586883
:1040E000DA6800FB012038B11BF801201B6842FA96
:1040F00003F3DB0700D5B047BC42E2D1D5B1104B8A
:10410000104A9B68EB1A9B1002FB03F30E490F4801
:104110000022CA5429460BF80320FFF701FEB8F12C
:10412000000F01D1BDE8F88F29460548BDE8F84FDA
:10413000FFF732BF4FF0FF33E8E700BF300F00203A
:104140003C020020ABAAAAAA540F0020640F002052
:104150003C10002038B10368072B04D80C4A52F8F1
:104160002330984211D00B4A1368072B0BD810B498
:104170008160074903605C1C41F823001460012042
:104180005DF8044B70470020704781600120704744
:10419000340F002038100020844638B339B3F0B50E
:1041A000C46845680B1B93FBF5F3591C1CD0114ADE
:1041B000966803EB430316EB830315D00E4FDFF82D
:1041C0003CE01B68991B8A1007FB02F202FB0540CA
:1041D00053B10C3108D030B11EF80220DCF80010C9
:1041E0000A41D207EDD5F0BD0020F0BD704708466A
:1041F000704700BF3C020020ABAAAAAA3C100020D6
:10420000124B1968F9B1124B9B68C91AD0B111F160
:104210000C0F17D00F4BC268891001FB03F34168E4
:1042200001FB032179B110B40B4C0268E35C13412C
:10423000DB0703D508465DF8044B70475DF8044B77
:10424000FFF7AABF0021FFF7A7BF00BF640F002040
:104250003C020020ABAAAAAA3C10002010B50446DC
:104260000846FFF7D5FE84B1431C02460DD06068B6
:10427000E36800FB023038B1054B21689B5C0B41C1
:1042800013F0010F08BF002010BD002010BD00BFBB
:104290003C1000202DE9F041002843D03B4B0C4658
:1042A000002908BF1C4621460546FFF7D7FF002816
:1042B0003CD000262046FFF7ABFE471C18D06A68AA
:1042C000EC6802FB00440021204608F045FFEB6843
:1042D0006A68E31A93FBF2F35A1C06D028682C494B
:1042E00001228240C85C0243CA542046BDE8F081E6
:1042F000DFF8A4804046FFF733FE074630B3254879
:104300003946FFF7C1FCD8F808602146BE1B381DAE
:10431000FFF7ACFC16F10C0F2BD100216A680846A0
:1043200008F01AFF00242046BDE8F0812046FFF780
:104330006FFE0130BDD11848FFF75CFE0028B8D1F0
:10434000FFF78AFE06460028ECD0B3E7002EE9D03E
:104350003046FFF75DFE411CE4D0D8F8083000EB92
:10436000400013EB8007DDD000213846FFF79CFEAC
:10437000C5E70A496A68EC68B31001FB03F302FB66
:1043800003440021204608F0E7FEA0E7ECF300001C
:104390003C100020640F00203C020020ABAAAAAA17
:1043A00020B321B3C3684268CB1A93FBF2F35A1CC3
:1043B0001DD030B5104C056814F803C0012202FA74
:1043C00005FE2CEA0E0C04F803C0C3684468CB1A3F
:1043D00093FBF4F3591C0CD0084C0068E15C02FA22
:1043E00000F021EA0001E154104630BD7047002082
:1043F0007047104630BD00BF3C100020540F002015
:1044000098B189B1C2684368891A91FBF3F14B1CDA
:104410000AD0064A036812F801C0012000FA03F32B
:1044200043EA0C035354704700207047540F002098
:10443000A0B1A1B1C2684368891A91FBF3F14B1C8A
:104440000DD010B4074C0268635C012000FA02F240
:1044500023EA020363545DF8044B70477047002061
:10446000704700BF540F002088B179B1C26843681B
:10447000881A90FBF3F0431C08D0054B996800EBB9
:10448000400011EB800002D00430704700207047DC
:104490003C02002070B50B4B1C685CB105460E4613
:1044A000012D09D01DB963680BB1984718B924686C
:1044B000002CF5D1002070BDA3683046002BF6D04B
:1044C0009847F3E74C100020054A01231361D2F806
:1044D000503513F0FF03FAD1C2F8FC3F01207047BA
:1044E00000100040A1B119280ED8DFE800F00F1825
:1044F0000D0D2D24635E47410D130D0D0D807C784D
:10450000740D706C683D3A3601207047002070478A
:1045100002207047384B1B780B6000207047374BE8
:10452000374AD3F80835A2FB03239B080A33DBB2D2
:1045300000200B607047334BDB7800200860002BB5
:10454000E4D001230B6070472E4B1B7800200860DD
:10455000002BDBD004230B6070477D230B60002011
:10456000704700200860704710230B6000207047E0
:10457000254B93F900300B60002070471F4A012340
:1045800082B05361D2F81C31002BFBD00020C2F85E
:104590001C01D2F81C310193019BD2F8483503F07D
:1045A0007F035B420B6002B07047164B5B790B6078
:1045B00000207047134B5B780B60002070470A2384
:1045C0000B600020704720230B60002070470323FE
:1045D0000B600020704708230B6000207047D82331
:1045E0000B60002070471A230B60002070470B23DC
:1045F0000B600020704700BFB92F00200010004062
:10460000CDCCCCCC58020020BA2F0020012070471E
:1046100030B583B0FFF7A8F9BFF35F8F1D4B1B7850
:10462000ABB11D4B1D4902224FF0FF34C1F80843C6
:10463000C3F88021C3F88020BFF34F8FBFF36F8F83
:10464000BFF35F8F03B0BDE83040FFF791B903F0CF
:10465000FF02124B1049C3F83021D3F830410194C6
:10466000019CC3F83421D3F8342100924FF0FF3479
:10467000009DC3F8084302224FF44054C1F8802142
:10468000C3F804430A60BFF35F8F03B0BDE8304056
:10469000FFF76EB95802002000E100E00010004072
:1046A000144BD3F8FC0F28B1D3F85025D2B2032A0B
:1046B00001D000207047104A127802F0FF0072B15A
:1046C0000E4A1278053A7A2AF3D8D3F83021002A14
:1046D000EFD1D3F83401B0FA80F040097047074AAF
:1046E0001378053B7A2BE5D892F8800080F0010022
:1046F000704700BF001000405802002050100020FA
:10470000074A1378053B7A2B08D8064BD3F830318B
:1047100013B992F88000704701207047002070475D
:1047200050100020001000400D2801D001207047DB
:10473000042A05D121B1034B1B680B600020704790
:1047400002207047D410002070B51B4CD4F850558F
:10475000EDB2032D82B02AD0184B194A1949C4F87A
:104760000415C3F8102502F5DE421432C3F81425EF
:1047700001264FF00062C3F80465C3F80425FFF773
:1047800047FFD4F8003243F01003C4F80032D4F8E5
:104790000032022D43F40023C4F8003209D0002374
:1047A000C4F85831D4F858310193019B666002B0C7
:1047B00070BDA66002B070BD0010004000F0014066
:1047C000381100405010002070B5324B324D00229D
:1047D000C3F8382184B0D3F838410094009CC3F862
:1047E0000C21D3F80C410194019CC3F83421D3F877
:1047F00034410294029CC3F830212C78D3F8303134
:104800000393631F7A2B039A02D8023CA1420ADA6F
:1048100081220021204808F09FFCFFF795FF00242B
:10482000204604B070BD2246691C08F07FFB2B199E
:104830001A4E5B78174A3F2B9ABF9B00DBB2FF23CF
:104840003370D2F84815164B01F07F01494249B246
:104850001970042089B201F035F93178032001F094
:1048600031F9104B2A7810491A74D1F84C05586068
:10487000D1F8481599605200DA605868023818601B
:1048800081220021044808F067FCFFF75DFF204605
:1048900004B070BD0010004050100020B92F00205F
:1048A000BA2F0020D4100020008000407D2910B5D0
:1048B0000C4609D801460A48A31C00F8013B2246D1
:1048C00008F034FB002010BD064A0749074801F0F4
:1048D0006FF97D222146064801F06AF9012010BDDA
:1048E000E81000200CF400001CF40000A8F2000006
:1048F00020F4000010B4174B17490F22C3F81025FD
:104900008A780A3A02EB8202C3F808250879CC7942
:104910008A794979120642EA0422024342EA0142B4
:10492000C3F86C260D4C0E4840F202210022C3F859
:104930003415C3F838457F21C3F83C2540F20122E5
:10494000C3F81405C3F81815C3F850265DF8044BD6
:10495000704700BF001000405802002021100100E5
:104960000800000608B5084BD3F8FC2F1AB1FFF772
:10497000EBFE012008BD0122C3F8FC2FFFF7BAFFB0
:10498000FFF7E2FE012008BD0010004010B51C49F1
:104990001C4C1D484FF0804200230B6023704B607D
:1049A00003708B6082B0CB600B74C2F80031D2F818
:1049B00000310093012300991360D2F80031002BDD
:1049C000FBD00024C2F80041D2F800310193214607
:1049D0000E48019B01F0B6F9214681220C4808F0EF
:1049E000BBFB0C4B0122C3F8FC2FFFF783FF0A4AE5
:1049F0001378DBB21370FFF70BFE204602B010BD38
:104A0000D4100020BA2F0020B92F00204802002027
:104A100050100020001000405802002000B51B4B31
:104A2000D3F8FC2F85B052B3FFF78EFE174B002250
:104A3000C3F84821D3F8481103910399C3F84421DE
:104A4000D3F8441102910299C3F84C21D3F84C21B8
:104A5000019201220199DA6202E0D3F844211AB9E5
:104A6000D3F84821002AF8D0084BD3F84801D3F8EE
:104A70004431B0FA80F0400905B05DF804FB012232
:104A8000C3F8FC2FFFF736FFCEE700BF0010004051
:104A900010B50388044663B140F2D33293420DD17E
:104AA000822901D0012010BD134A1378053B7A2BCF
:104AB00008D940F2D3332380012010BD00230380A6
:104AC000032010BD0D4BD3F830311BB992F8803064
:104AD000002BEED008F098F900F0B0FE00F084FF53
:104AE0008021FFF771FE0028E3DD80B200F076FF41
:104AF000034BDB689847DCE75010002000100040B3
:104B0000A8F3000010B57D2884B060D8364BD3F8E8
:104B1000FC2F002A4FD0354CFFF716FEE378002B10
:104B200043D16378304ADBB20121C2F80C35D16041
:104B3000D2F85035DBB2022BFAD100232C49C2F84F
:104B40000415C2F80C31D2F80C1101910199C2F888
:104B50006C31D2F86C1102910299C2F85431D2F83A
:104B600054310393039BD2F8003223F01003C2F8B0
:104B70000032D2F80032012143F48023C2F800321F
:104B8000116003F0BFFD6FF002031C1A03F0BAFDC1
:104B9000E042FBD4144AD2F85035DBB20B2BFAD0EA
:104BA000FFF7D2FD002004B010BDFFF737FF00284B
:104BB000B7D10220F7E701220C4CC3F8FC2FFFF716
:104BC00099FEFFF7C1FDE378002BAAD0EDE7094A73
:104BD00009490446094800F0EBFF2146084800F067
:104BE000E7FF012004B010BD001000405802002073
:104BF000E81000200CF400001CF40000A8F20000F3
:104C00003CF400007D2910B50C460CD801460D4837
:104C1000A31C224600F8013B08F088F92046BDE8B5
:104C20001040FFF76FBF084A0849094800F0C0FF6D
:104C3000214608487D2200F0BBFF2046BDE8104019
:104C4000FFF760BFE81000200CF400001CF4000027
:104C5000A8F2000020F4000010B507280FD8DFE804
:104C600000F0101F0E0E404B52043D4B3D48C9B2A0
:104C70005971D0F8FC2F002A59D1002010BD012015
:104C800010BD012961D0002949D1364B01221A619A
:104C9000D3F8500510F0FF00FAD1C3F8FC0F10BD97
:104CA000A1F10B030F2B3AD82D4B2E4AC8B29870A6
:104CB000D2F8FC3F002BE0D001231361D2F850352D
:104CC00013F0FF03FAD10A3901EB8101C2F8FC3F6E
:104CD000C2F80815D2F8FC3F1BB3FFF735FD0020E2
:104CE00010BD31F007041AD11D4BC1F380011970BA
:104CF000FFF78EFC204610BD31F001000FD1184B9C
:104D0000C9B2D97010BD164A164BC9B25170D3F84A
:104D1000FC2F002AB1D0C3F80C15002010BD0220D2
:104D200010BD0123C2F8FC3FFFF7E4FDD5E71C7975
:104D300093F807C09A795979130643EA0C23234361
:104D400043EA0143C0F86C3697E7064BD3F8FC2FD3
:104D5000002AC2D1C3F8FC1FFFF7CCFDBDE700BF9E
:104D60005802002000100040184B1B7803B1704718
:104D700000B503F0FF02164BD3F8301183B029B908
:104D8000D3F8342192B903B05DF804FBC3F83021A5
:104D9000D3F8302100920F4B00990F48012283F87D
:104DA000802003B05DF804EB01F0ACB8C3F8341117
:104DB000D3F83431019381220648019B08F0CCF9E5
:104DC00003B05DF804EBFFF7BFBC00BF5802002042
:104DD00000100040501000204802002010B580B1A3
:104DE000012800D010BD0E4C2369A070002BF9D013
:104DF0001A6822615B68012098472369002BF7D16C
:104E0000F0E7074CA36801226270002BEAD01A6811
:104E1000A2605B6800209847A368002BF7D110BD03
:104E20006C11002010B50B4C237882B013B1852093
:104E300002B010BD08486360A3602361E36000F026
:104E40003BF8019000F044F801980123237002B070
:104E500010BD00BF6C110020DD4D000038B5154DB0
:104E6000AB78044673B110B1436801209847002025
:104E7000FBF7A8FBEB680133EB600020BDE838408E
:104E8000FBF7A8BB03F0FF00FBF79CFB64B12A69AA
:104E900042B1944208D0134601E09C4204D01B6802
:104EA000002BFAD122602C61EB68002BE2D100F0DC
:104EB00025F8DFE76C110020044A137923B901219A
:104EC000106091801846704785207047801100203F
:104ED000084B1A68D20707D5074A4FF080410123D3
:104EE000C1F8183513707047C02283F800230122DF
:104EF0001A60F1E700E100E0BB2F00204FF0804393
:104F00000022C3F8042182B0D3F804210192019851
:104F100002210122C3F804139A6002B0704700BF57
:104F200010B54FF0804382B0D3F8002162B1002168
:104F3000164AC3F80011D3F80011507900910121ED
:104F4000009CC3F80813A8B14FF08043D3F80421A4
:104F5000CAB10022C3F80421D3F80421019202212E
:104F60000A4A0198C3F808131368012002B0BDE88B
:104F7000104018471368517198474FF08043D3F899
:104F80000421002AE5D102B010BD00BF801100202D
:104F900070B5184D95F86A4082B044BB3022A8180D
:104FA000FF2108F0D9F828464FF0FF3640F8046B8F
:104FB0002C22FF2108F0D0F80F4BA5F86840C02242
:104FC000C5E9186483F8062340221A600B4BC3F826
:104FD0007C41D3F87C11019101984FF000420121EE
:104FE000204685F86A10C3F8042302B070BD08207B
:104FF00002B070BD8811002000E100E000600040B8
:10500000034B93F86A00003818BF0120704700BFB7
:1050100088110020F0B5444D2B1893F93030002B47
:1050200001DB0820F0BD8E78C6F34006002E0CBFD1
:105030000823002305EB830CACF1040C0CBF4FF0EC
:105040000C0E4FF0080E02E001339E453ED95CF88D
:10505000044F0134F8D145F823202A185CB282F8B5
:10506000304016B9EA1882F858008A7856071ED4DC
:10507000D70749D51F2887BF2C4A00F01F060646D0
:105080004FF0A04202EB8602D2F8006726F002063B
:10509000C2F80067264FC60800F0070E17F806C0D2
:1050A000012202FA0EF242EA0C02BA558A7812F094
:1050B00002020DD1083C45FA84F5097895F8603074
:1050C00043EA811385F860301046F0BD0420F0BD3E
:1050D0009B0003F1804303F5C0430978D3F81045E2
:1050E00024F44F3424F44074C3F810450202090438
:1050F000D3F8100501F4403102F47C520A43024314
:10510000C3F810250020F0BD1F284E7887BF074F39
:1051100000F01F0202464FF0A04702F5E072B60011
:1051200047F82260B6E700BF881100200003005056
:10513000EC11002030B4344C04EB000C82B09CF92C
:105140003030072B24DD083B44FA83F393F86030BA
:105150009B09032B47D0012B0CBF4FF400324FF4B7
:1051600040321F288ABF294B4FF0A04300F01F0098
:1051700003EB8000D0F8003723F44033C0F8003749
:10518000D0F800371A43C0F8002702B030BC70478F
:10519000DAB2072AF9D8980000F1804003F1400202
:1051A00000F5C04052B29200D0F8105592B202F110
:1051B000804202F5C04245F00105C0F810550020BC
:1051C000106012680192019A0029DED09CF930200B
:1051D00054F82220002AD8D00D49012202FA03F304
:1051E000C1F80433D1E71F288ABF084A4FF0A04214
:1051F00000F01F03D2F8102598BF0346DA4002F0F2
:10520000010202321204ACE78811002000030050B2
:1052100000600040194B034493F93030072B18DC31
:10522000DAB2072A14D810B49A0002F1804202F5CB
:10523000C042134CD2F81005012120F0010001FA00
:1052400003F3C2F81005C4F808335DF8044B704747
:1052500070471F288ABF0B4B4FF0A04300F01F0080
:1052600003EB8000D0F8003723F44033C0F8003758
:10527000D0F80037C0F80037704700BF8811002011
:1052800000600040000300502DE9F04F0022164658
:1052900089B0CDE90222724B724C73480122354627
:1052A00004E0043383424FEA420211D01968012915
:1052B000F7D1D4F804131142F3D01D60196800919E
:1052C0000433834246EA020600994FEA4202EDD1D6
:1052D000644BD3F87C21012A21D0F3B2D3B1634FC0
:1052E00001250024A30003F180432E4203F5C043AF
:1052F0004FEA45050BD0D3F8100557F82420D3F812
:105300001015C0F30520C1F3014102B190470134EB
:10531000082CE7D1002E16DB09B0BDE8F08F002283
:10532000C3F87C21D3F87C3101934FF0A042019B5C
:10533000D2F810254E4B0292D3F810250392F3B207
:10534000002B40F089804FF0FF334A4D0DF1100AD9
:10535000CDE9063300220492CAF80420A5F16408BE
:10536000454C0027012614F9010B431C33D0C0F330
:10537000C20E0EF120030DEB030C00F007031CF826
:10538000081C06FA03F31942C2B200F03F0022D013
:1053900008EB000191F9301058F821909109B9F10A
:1053A000000F4BD003294BD01F288BBFDFF8C0E084
:1053B0004FF0A04E02F01F0202460EEB82021CF8D4
:1053C00018ECD2F800C71EEA030FCCF3014C1AD137
:1053D000BCF1030F3BD0A542C5D1002F9CD04FF0AC
:1053E000A0430299D3F81035214A9942D2F81025EA
:1053F00002D1039991428FD0DDE904010293069016
:1054000003920791ACE7BCF1020FE4D1032904D069
:10541000B9F1000FDFD0C847DDE74FF4403CD2F8C8
:10542000003723F44033C2F80037D2F80037013791
:105430004CEA0303FFB2C2F80037E9E70329CAD1F7
:105440001AF80EB04BEA030B0AF80EB0ACE70329CA
:10545000DED14FF4003CE2E746F000463FE700BFF4
:105460000061004000600040206100408811002081
:1054700000030050EC110020E811002010B54FF09F
:10548000804386B0D3F80443620703D5D3F80821DC
:10549000002A62D1A30605D54FF08043D3F814212A
:1054A000002A4FD1600605D54FF08043D3F818216C
:1054B000002A3BD1210604D54FF08043D3F81C21AC
:1054C0004ABBE20504D54FF08043D3F82021B2B99E
:1054D000A30512D54FF08043D3F824216AB10022EE
:1054E000C3F82421D3F82421214B0592059A1B6887
:1054F000022006B0BDE81040184706B010BD0022DB
:10550000C3F820211A4AD3F82031049301201368EC
:10551000049A9847DCE70020C3F81C01144AD3F82A
:105520001C3103931368039A9847CAE70022C3F813
:105530001821104AD3F81831029301201368029AF7
:105540009847B7E70020C3F814010A4AD3F814318A
:1055500001931368019A9847A4E70022C3F8082131
:10556000054AD3F8083100931368009A984791E7E9
:10557000FC110020F8110020F411002008B5FFF7FD
:105580007DFFBDE80840FFF7CBBC00BF074B002202
:10559000C3F8002182B0D3F800210192019A044A95
:1055A000D3F808051368C0B202B0184700D0004015
:1055B0000012002030B41F4C437944F823201E4CC5
:1055C00003EB4303E35C93BB90F904308A78002B30
:1055D00026DB03F16043520103F56143D2B283F845
:1055E000002390F90430002B09DB144D4FEA531CC3
:1055F000012203F01F0302FA03F345F82C3003687D
:105600000A88C3F8082543790879C97803EB43036E
:10561000E21850700120E0549170002030BC7047B7
:10562000074D03F00F035201D2B2EA54D9E7082024
:1056300030BC7047081200200412002000E100E096
:1056400014ED00E00368044A01211960437903EB7B
:1056500043030221D15470470412002010B40368A0
:105660000024C3F8004183B0D3F8004103680194DB
:105670000122019CC3F8442311B10368C3F8042339
:1056800003B05DF8044B70472DE9F041274E284FD9
:10569000DFF8A08084B000244FF48035D6F80433BE
:1056A0002B4211D057F824300022E0B263B1C6F883
:1056B0004853C6F8085347F8242057F8243003937A
:1056C000D8F80030039A98470134032C4FEA450577
:1056D000E4D1164BD3F80423D10702D5D3F8002127
:1056E000C2B9124BD3F80423920710D5D3F8042182
:1056F0006AB10022C3F80421D3F804210D4B0192B2
:10570000019A1B68052004B0BDE8F041184704B0B9
:10571000BDE8F0810022C3F80021064AD3F8003129
:10572000029304201368029A9847DAE700B0004019
:1057300040B100400812002010B5084CD4F80031E8
:1057400082B04BB1064B1B6898470023C4F8003168
:10575000D4F800310193019B02B010BD000001405C
:105760000C12002070B5114B114A1D781160DDB983
:10577000104E027801211970C6F80C2541680446C4
:105780004FF47A720023C803490C09F0A9FAC6F84D
:105790000405237A084A5B01DBB282F810334FF428
:1057A00080331360284670BD082070BDBD2F0020D7
:1057B0000C1200200000014000E100E0044B05490C
:1057C00001220220C3F804231A600870704700BF4A
:1057D00000000140BD2F002010B504460020FAF75C
:1057E000F1FE0E4A1378072B11D80D492370581C6F
:1057F0001070D1F80805012202FA03F30343C1F83F
:10580000083500240020FAF7E5FE204610BD0424E8
:105810000020FAF7DFFE204610BD00BFBC2F00209D
:1058200000000140034B044A00F5C07043F82020FB
:10583000704700BF000001403546526E0D480E4AC9
:105840000E49002310B503800D480E4C03800E480E
:1058500013600370C2E902332046C2E90433536087
:10586000FEF704FA04F108000449BDE81040FEF711
:10587000FDB900BFA22F0020A0120020ECF3000011
:10588000A02F002010120020BE2F00202DE9F04193
:10589000154ADFF86880154FDFF864C0144E0C46D7
:1058A000802914494FF00003C2E90033C2E90233F2
:1058B000C2E904330B7005464146384628BF8024B0
:1058C000ACF800303380FEF7D1F9414607F108000B
:1058D000FEF7CCF922462946074807F027FB34801B
:1058E0002046BDE8F08100BFA01200201012002069
:1058F000A02F0020BE2F002020120020ECF300007B
:10590000A22F00202DE9F0410E4A0F4B14781F887A
:10591000E519802D03DD00252846BDE8F081DFF87C
:10592000308022464146064607F000FB074B1988A7
:1059300021443A46301958FA81F107F0F7FA28461F
:10594000BDE8F081BE2F0020A02F0020A22F002054
:105950002012002010B5134B134C144A94F800C0C9
:105960001B881288634452FA83F39BB21A18802A68
:1059700016DC013B1BB2002B0EDB0D4A591C03EB5E
:10598000000E11447244013B1BB211F801ED02F804
:1059900001E9B3F1FF3FF6D160442070012010BD52
:1059A000002010BDA22F0020BE2F0020A02F00201D
:1059B00020120020074A1388834209DB0649B1F808
:1059C00000C080B21B1A6044088013800120704719
:1059D00000207047A02F0020A22F0020014B18802C
:1059E000704700BFA02F0020044A054B12881B7887
:1059F0000448134450FA83F0704700BFA22F0020E0
:105A0000BE2F0020201200200048704720120020E6
:105A1000014B1888704700BFA02F00200549064A97
:105A2000064B128808781B88104453FA80F080B225
:105A3000704700BFBE2F0020A22F0020A02F002003
:105A400030B50E4C0E4D84468E460FCCCCF800007F
:105A5000CCF80410CCF80820CCF80C3003CCCCF8EF
:105A60001000CCF814100FCDCEF80000CEF80410C2
:105A7000CEF80820CEF80C3030BD00BFA0120020B8
:105A80001012002010B584468E460068DCF8041021
:105A9000DCF80820DCF80C30084C0FC4DCF81000EF
:105AA000DCF8141003C4064CDEF80000DEF8041025
:105AB000DEF80820DEF80C300FC410BDA012002064
:105AC00010120020014B23F810107047A012002084
:105AD000014B33F810007047A0120020024B0C3825
